{
  "_format": "hh-sol-artifact-1",
  "contractName": "MyEpicNFT",
  "sourceName": "contracts/MyEpicNFT.sol",
  "abi": [
    {
      "inputs": [],
      "stateMutability": "nonpayable",
      "type": "constructor"
    },
    {
      "anonymous": false,
      "inputs": [
        {
          "indexed": true,
          "internalType": "address",
          "name": "owner",
          "type": "address"
        },
        {
          "indexed": true,
          "internalType": "address",
          "name": "approved",
          "type": "address"
        },
        {
          "indexed": true,
          "internalType": "uint256",
          "name": "tokenId",
          "type": "uint256"
        }
      ],
      "name": "Approval",
      "type": "event"
    },
    {
      "anonymous": false,
      "inputs": [
        {
          "indexed": true,
          "internalType": "address",
          "name": "owner",
          "type": "address"
        },
        {
          "indexed": true,
          "internalType": "address",
          "name": "operator",
          "type": "address"
        },
        {
          "indexed": false,
          "internalType": "bool",
          "name": "approved",
          "type": "bool"
        }
      ],
      "name": "ApprovalForAll",
      "type": "event"
    },
    {
      "anonymous": false,
      "inputs": [
        {
          "indexed": false,
          "internalType": "address",
          "name": "sender",
          "type": "address"
        },
        {
          "indexed": false,
          "internalType": "uint256",
          "name": "tokenId",
          "type": "uint256"
        }
      ],
      "name": "NewEpicNFTMinted",
      "type": "event"
    },
    {
      "anonymous": false,
      "inputs": [
        {
          "indexed": true,
          "internalType": "address",
          "name": "from",
          "type": "address"
        },
        {
          "indexed": true,
          "internalType": "address",
          "name": "to",
          "type": "address"
        },
        {
          "indexed": true,
          "internalType": "uint256",
          "name": "tokenId",
          "type": "uint256"
        }
      ],
      "name": "Transfer",
      "type": "event"
    },
    {
      "inputs": [
        {
          "internalType": "address",
          "name": "to",
          "type": "address"
        },
        {
          "internalType": "uint256",
          "name": "tokenId",
          "type": "uint256"
        }
      ],
      "name": "approve",
      "outputs": [],
      "stateMutability": "nonpayable",
      "type": "function"
    },
    {
      "inputs": [
        {
          "internalType": "address",
          "name": "owner",
          "type": "address"
        }
      ],
      "name": "balanceOf",
      "outputs": [
        {
          "internalType": "uint256",
          "name": "",
          "type": "uint256"
        }
      ],
      "stateMutability": "view",
      "type": "function"
    },
    {
      "inputs": [
        {
          "internalType": "uint256",
          "name": "tokenId",
          "type": "uint256"
        }
      ],
      "name": "getApproved",
      "outputs": [
        {
          "internalType": "address",
          "name": "",
          "type": "address"
        }
      ],
      "stateMutability": "view",
      "type": "function"
    },
    {
      "inputs": [],
      "name": "getTotalNFTsMintedSoFar",
      "outputs": [
        {
          "internalType": "uint256",
          "name": "",
          "type": "uint256"
        }
      ],
      "stateMutability": "view",
      "type": "function"
    },
    {
      "inputs": [
        {
          "internalType": "address",
          "name": "owner",
          "type": "address"
        },
        {
          "internalType": "address",
          "name": "operator",
          "type": "address"
        }
      ],
      "name": "isApprovedForAll",
      "outputs": [
        {
          "internalType": "bool",
          "name": "",
          "type": "bool"
        }
      ],
      "stateMutability": "view",
      "type": "function"
    },
    {
      "inputs": [],
      "name": "makeAnEpicNFT",
      "outputs": [],
      "stateMutability": "nonpayable",
      "type": "function"
    },
    {
      "inputs": [],
      "name": "name",
      "outputs": [
        {
          "internalType": "string",
          "name": "",
          "type": "string"
        }
      ],
      "stateMutability": "view",
      "type": "function"
    },
    {
      "inputs": [
        {
          "internalType": "uint256",
          "name": "tokenId",
          "type": "uint256"
        }
      ],
      "name": "ownerOf",
      "outputs": [
        {
          "internalType": "address",
          "name": "",
          "type": "address"
        }
      ],
      "stateMutability": "view",
      "type": "function"
    },
    {
      "inputs": [
        {
          "internalType": "uint256",
          "name": "tokenId",
          "type": "uint256"
        }
      ],
      "name": "pickRandomFirstWord",
      "outputs": [
        {
          "internalType": "string",
          "name": "",
          "type": "string"
        }
      ],
      "stateMutability": "view",
      "type": "function"
    },
    {
      "inputs": [
        {
          "internalType": "uint256",
          "name": "tokenId",
          "type": "uint256"
        }
      ],
      "name": "pickRandomSecondWord",
      "outputs": [
        {
          "internalType": "string",
          "name": "",
          "type": "string"
        }
      ],
      "stateMutability": "view",
      "type": "function"
    },
    {
      "inputs": [
        {
          "internalType": "uint256",
          "name": "tokenId",
          "type": "uint256"
        }
      ],
      "name": "pickRandomThirdWord",
      "outputs": [
        {
          "internalType": "string",
          "name": "",
          "type": "string"
        }
      ],
      "stateMutability": "view",
      "type": "function"
    },
    {
      "inputs": [
        {
          "internalType": "address",
          "name": "from",
          "type": "address"
        },
        {
          "internalType": "address",
          "name": "to",
          "type": "address"
        },
        {
          "internalType": "uint256",
          "name": "tokenId",
          "type": "uint256"
        }
      ],
      "name": "safeTransferFrom",
      "outputs": [],
      "stateMutability": "nonpayable",
      "type": "function"
    },
    {
      "inputs": [
        {
          "internalType": "address",
          "name": "from",
          "type": "address"
        },
        {
          "internalType": "address",
          "name": "to",
          "type": "address"
        },
        {
          "internalType": "uint256",
          "name": "tokenId",
          "type": "uint256"
        },
        {
          "internalType": "bytes",
          "name": "_data",
          "type": "bytes"
        }
      ],
      "name": "safeTransferFrom",
      "outputs": [],
      "stateMutability": "nonpayable",
      "type": "function"
    },
    {
      "inputs": [
        {
          "internalType": "address",
          "name": "operator",
          "type": "address"
        },
        {
          "internalType": "bool",
          "name": "approved",
          "type": "bool"
        }
      ],
      "name": "setApprovalForAll",
      "outputs": [],
      "stateMutability": "nonpayable",
      "type": "function"
    },
    {
      "inputs": [
        {
          "internalType": "bytes4",
          "name": "interfaceId",
          "type": "bytes4"
        }
      ],
      "name": "supportsInterface",
      "outputs": [
        {
          "internalType": "bool",
          "name": "",
          "type": "bool"
        }
      ],
      "stateMutability": "view",
      "type": "function"
    },
    {
      "inputs": [],
      "name": "symbol",
      "outputs": [
        {
          "internalType": "string",
          "name": "",
          "type": "string"
        }
      ],
      "stateMutability": "view",
      "type": "function"
    },
    {
      "inputs": [
        {
          "internalType": "uint256",
          "name": "tokenId",
          "type": "uint256"
        }
      ],
      "name": "tokenURI",
      "outputs": [
        {
          "internalType": "string",
          "name": "",
          "type": "string"
        }
      ],
      "stateMutability": "view",
      "type": "function"
    },
    {
      "inputs": [
        {
          "internalType": "address",
          "name": "from",
          "type": "address"
        },
        {
          "internalType": "address",
          "name": "to",
          "type": "address"
        },
        {
          "internalType": "uint256",
          "name": "tokenId",
          "type": "uint256"
        }
      ],
      "name": "transferFrom",
      "outputs": [],
      "stateMutability": "nonpayable",
      "type": "function"
    }
  ],
  "bytecode": "0x608060405260405180610160016040528061012f815260200162004b6c61012f9139600990805190602001906200003892919062000d6b565b506040518061020001604052806040518060400160405280600481526020017f486f6c790000000000000000000000000000000000000000000000000000000081525081526020016040518060400160405280600981526020017f4c6574686172676963000000000000000000000000000000000000000000000081525081526020016040518060400160405280600681526020017f4b6c75646765000000000000000000000000000000000000000000000000000081525081526020016040518060400160405280600981526020017f4e6f746f72696f7573000000000000000000000000000000000000000000000081525081526020016040518060400160405280600781526020017f457272617469630000000000000000000000000000000000000000000000000081525081526020016040518060400160405280600681526020017f54656e646572000000000000000000000000000000000000000000000000000081525081526020016040518060400160405280600681526020017f4d6967687479000000000000000000000000000000000000000000000000000081525081526020016040518060400160405280600481526020017f54696e790000000000000000000000000000000000000000000000000000000081525081526020016040518060400160405280600581526020017f526f756e6400000000000000000000000000000000000000000000000000000081525081526020016040518060400160405280600581526020017f526f79616c00000000000000000000000000000000000000000000000000000081525081526020016040518060400160405280600681526020017f576172706564000000000000000000000000000000000000000000000000000081525081526020016040518060400160405280600681526020017f53696c656e74000000000000000000000000000000000000000000000000000081525081526020016040518060400160405280600681526020017f536f72646964000000000000000000000000000000000000000000000000000081525081526020016040518060400160405280600481526020017f42616c640000000000000000000000000000000000000000000000000000000081525081526020016040518060400160405280600781526020017f4d697373696e670000000000000000000000000000000000000000000000000081525081526020016040518060400160405280600681526020017f5261676765640000000000000000000000000000000000000000000000000000815250815250600a9060106200040592919062000dfc565b506040518061020001604052806040518060400160405280600581526020017f5461636f7300000000000000000000000000000000000000000000000000000081525081526020016040518060400160405280600581526020017f426565747300000000000000000000000000000000000000000000000000000081525081526020016040518060400160405280600881526020017f426574686f76656e00000000000000000000000000000000000000000000000081525081526020016040518060400160405280600781526020017f4372756d626c650000000000000000000000000000000000000000000000000081525081526020016040518060400160405280600681526020017f547269666c65000000000000000000000000000000000000000000000000000081525081526020016040518060400160405280600581526020017f566164657200000000000000000000000000000000000000000000000000000081525081526020016040518060400160405280600781526020017f47756e746865720000000000000000000000000000000000000000000000000081525081526020016040518060400160405280600481526020017f526f73730000000000000000000000000000000000000000000000000000000081525081526020016040518060400160405280600681526020017f5374696d7079000000000000000000000000000000000000000000000000000081525081526020016040518060400160405280600581526020017f536f6e696300000000000000000000000000000000000000000000000000000081525081526020016040518060400160405280600581526020017f4d6172696f00000000000000000000000000000000000000000000000000000081525081526020016040518060400160405280600481526020017f4c696e6b0000000000000000000000000000000000000000000000000000000081525081526020016040518060400160405280600681526020017f4261746d616e000000000000000000000000000000000000000000000000000081525081526020016040518060400160405280600881526020017f4e61727261746f7200000000000000000000000000000000000000000000000081525081526020016040518060400160405280600581526020017f4661727a6100000000000000000000000000000000000000000000000000000081525081526020016040518060400160405280600581526020017f4361726469000000000000000000000000000000000000000000000000000000815250815250600b906010620007d292919062000dfc565b506040518061020001604052806040518060400160405280600581526020017f4d616b657200000000000000000000000000000000000000000000000000000081525081526020016040518060400160405280600481526020017f4b696e670000000000000000000000000000000000000000000000000000000081525081526020016040518060400160405280600381526020017f576f6b000000000000000000000000000000000000000000000000000000000081525081526020016040518060400160405280600481526020017f54696d650000000000000000000000000000000000000000000000000000000081525081526020016040518060400160405280600581526020017f536d69746500000000000000000000000000000000000000000000000000000081525081526020016040518060400160405280600581526020017f5368696c6c00000000000000000000000000000000000000000000000000000081525081526020016040518060400160405280600481526020017f536c61620000000000000000000000000000000000000000000000000000000081525081526020016040518060400160405280600681526020017f447261706572000000000000000000000000000000000000000000000000000081525081526020016040518060400160405280600881526020017f466f6f7462616c6c00000000000000000000000000000000000000000000000081525081526020016040518060400160405280600581526020017f4d6572637900000000000000000000000000000000000000000000000000000081525081526020016040518060400160405280600581526020017f50696e6b7900000000000000000000000000000000000000000000000000000081525081526020016040518060400160405280600581526020017f436f75636800000000000000000000000000000000000000000000000000000081525081526020016040518060400160405280600381526020017f4d6963000000000000000000000000000000000000000000000000000000000081525081526020016040518060400160405280600381526020017f426167000000000000000000000000000000000000000000000000000000000081525081526020016040518060400160405280600681526020017f4d6972726f72000000000000000000000000000000000000000000000000000081525081526020016040518060400160405280600581526020017f46757a7a79000000000000000000000000000000000000000000000000000000815250815250600c90601062000b9f92919062000dfc565b5034801562000bad57600080fd5b506040518060400160405280600981526020017f5371756172654e465400000000000000000000000000000000000000000000008152506040518060400160405280600681526020017f5351554152450000000000000000000000000000000000000000000000000000815250816000908051906020019062000c3292919062000d6b565b50806001908051906020019062000c4b92919062000d6b565b50505062000c996040518060400160405280602081526020017f54686973206973206d79204e465420636f6e74726163742e2057686f6121212181525062000c9f60201b620011b71760201c565b6200101d565b62000d3f8160405160240162000cb6919062000f31565b6040516020818303038152906040527f41304fac000000000000000000000000000000000000000000000000000000007bffffffffffffffffffffffffffffffffffffffffffffffffffffffff19166020820180517bffffffffffffffffffffffffffffffffffffffffffffffffffffffff838183161783525050505062000d4260201b60201c565b50565b60008151905060006a636f6e736f6c652e6c6f679050602083016000808483855afa5050505050565b82805462000d799062000fa7565b90600052602060002090601f01602090048101928262000d9d576000855562000de9565b82601f1062000db857805160ff191683800117855562000de9565b8280016001018555821562000de9579182015b8281111562000de857825182559160200191906001019062000dcb565b5b50905062000df8919062000e63565b5090565b82805482825590600052602060002090810192821562000e50579160200282015b8281111562000e4f57825182908051906020019062000e3e92919062000d6b565b509160200191906001019062000e1d565b5b50905062000e5f919062000e82565b5090565b5b8082111562000e7e57600081600090555060010162000e64565b5090565b5b8082111562000ea6576000818162000e9c919062000eaa565b5060010162000e83565b5090565b50805462000eb89062000fa7565b6000825580601f1062000ecc575062000eed565b601f01602090049060005260206000209081019062000eec919062000e63565b5b50565b600062000efd8262000f55565b62000f09818562000f60565b935062000f1b81856020860162000f71565b62000f26816200100c565b840191505092915050565b6000602082019050818103600083015262000f4d818462000ef0565b905092915050565b600081519050919050565b600082825260208201905092915050565b60005b8381101562000f9157808201518184015260208101905062000f74565b8381111562000fa1576000848401525b50505050565b6000600282049050600182168062000fc057607f821691505b6020821081141562000fd75762000fd662000fdd565b5b50919050565b7f4e487b7100000000000000000000000000000000000000000000000000000000600052602260045260246000fd5b6000601f19601f8301169050919050565b613b3f806200102d6000396000f3fe608060405234801561001057600080fd5b50600436106101165760003560e01c806370a08231116100a2578063b88d4fde11610071578063b88d4fde14610305578063c575757a14610321578063c87b56dd14610351578063de9d132f14610381578063e985e9c51461038b57610116565b806370a082311461026b57806395d89b411461029b578063a22cb465146102b9578063b187301f146102d557610116565b8063095ea7b3116100e9578063095ea7b3146101b757806323b872dd146101d35780632de38d68146101ef57806342842e0e1461021f5780636352211e1461023b57610116565b806301ffc9a71461011b578063060475901461014b57806306fdde0314610169578063081812fc14610187575b600080fd5b61013560048036038101906101309190612653565b6103bb565b6040516101429190613363565b60405180910390f35b61015361049d565b604051610160919061362e565b60405180910390f35b6101716104e8565b60405161017e919061337e565b60405180910390f35b6101a1600480360381019061019c91906126a5565b61057a565b6040516101ae91906132d3565b60405180910390f35b6101d160048036038101906101cc9190612617565b6105ff565b005b6101ed60048036038101906101e89190612511565b610717565b005b610209600480360381019061020491906126a5565b610777565b604051610216919061337e565b60405180910390f35b61023960048036038101906102349190612511565b610895565b005b610255600480360381019061025091906126a5565b6108b5565b60405161026291906132d3565b60405180910390f35b610285600480360381019061028091906124ac565b610967565b604051610292919061362e565b60405180910390f35b6102a3610a1f565b6040516102b0919061337e565b60405180910390f35b6102d360048036038101906102ce91906125db565b610ab1565b005b6102ef60048036038101906102ea91906126a5565b610ac7565b6040516102fc919061337e565b60405180910390f35b61031f600480360381019061031a9190612560565b610be5565b005b61033b600480360381019061033691906126a5565b610c47565b604051610348919061337e565b60405180910390f35b61036b600480360381019061036691906126a5565b610d65565b604051610378919061337e565b60405180910390f35b610389610eb7565b005b6103a560048036038101906103a091906124d5565b611123565b6040516103b29190613363565b60405180910390f35b60007f80ac58cd000000000000000000000000000000000000000000000000000000007bffffffffffffffffffffffffffffffffffffffffffffffffffffffff1916827bffffffffffffffffffffffffffffffffffffffffffffffffffffffff1916148061048657507f5b5e139f000000000000000000000000000000000000000000000000000000007bffffffffffffffffffffffffffffffffffffffffffffffffffffffff1916827bffffffffffffffffffffffffffffffffffffffffffffffffffffffff1916145b80610496575061049582611250565b5b9050919050565b60006104e06040518060400160405280601e81526020017f257320746f74616c204e4654732068617665206265656e206d696e74656400008152506008546112ba565b600854905090565b6060600080546104f7906138cd565b80601f0160208091040260200160405190810160405280929190818152602001828054610523906138cd565b80156105705780601f1061054557610100808354040283529160200191610570565b820191906000526020600020905b81548152906001019060200180831161055357829003601f168201915b5050505050905090565b600061058582611356565b6105c4576040517f08c379a00000000000000000000000000000000000000000000000000000000081526004016105bb9061358e565b60405180910390fd5b6004600083815260200190815260200160002060009054906101000a900473ffffffffffffffffffffffffffffffffffffffff169050919050565b600061060a826108b5565b90508073ffffffffffffffffffffffffffffffffffffffff168373ffffffffffffffffffffffffffffffffffffffff16141561067b576040517f08c379a0000000000000000000000000000000000000000000000000000000008152600401610672906135ee565b60405180910390fd5b8073ffffffffffffffffffffffffffffffffffffffff1661069a6113c2565b73ffffffffffffffffffffffffffffffffffffffff1614806106c957506106c8816106c36113c2565b611123565b5b610708576040517f08c379a00000000000000000000000000000000000000000000000000000000081526004016106ff906134ae565b60405180910390fd5b61071283836113ca565b505050565b6107286107226113c2565b82611483565b610767576040517f08c379a000000000000000000000000000000000000000000000000000000000815260040161075e9061360e565b60405180910390fd5b610772838383611561565b505050565b606060006107ab610787846117bd565b604051602001610797919061328f565b60405160208183030381529060405261196a565b9050600a80549050816107be9190613948565b9050600a81815481106107fa577f4e487b7100000000000000000000000000000000000000000000000000000000600052603260045260246000fd5b90600052602060002001805461080f906138cd565b80601f016020809104026020016040519081016040528092919081815260200182805461083b906138cd565b80156108885780601f1061085d57610100808354040283529160200191610888565b820191906000526020600020905b81548152906001019060200180831161086b57829003601f168201915b5050505050915050919050565b6108b083838360405180602001604052806000815250610be5565b505050565b6000806002600084815260200190815260200160002060009054906101000a900473ffffffffffffffffffffffffffffffffffffffff169050600073ffffffffffffffffffffffffffffffffffffffff168173ffffffffffffffffffffffffffffffffffffffff16141561095e576040517f08c379a00000000000000000000000000000000000000000000000000000000081526004016109559061350e565b60405180910390fd5b80915050919050565b60008073ffffffffffffffffffffffffffffffffffffffff168273ffffffffffffffffffffffffffffffffffffffff1614156109d8576040517f08c379a00000000000000000000000000000000000000000000000000000000081526004016109cf906134ee565b60405180910390fd5b600360008373ffffffffffffffffffffffffffffffffffffffff1673ffffffffffffffffffffffffffffffffffffffff168152602001908152602001600020549050919050565b606060018054610a2e906138cd565b80601f0160208091040260200160405190810160405280929190818152602001828054610a5a906138cd565b8015610aa75780601f10610a7c57610100808354040283529160200191610aa7565b820191906000526020600020905b815481529060010190602001808311610a8a57829003601f168201915b5050505050905090565b610ac3610abc6113c2565b838361199d565b5050565b60606000610afb610ad7846117bd565b604051602001610ae79190613228565b60405160208183030381529060405261196a565b9050600b8054905081610b0e9190613948565b9050600b8181548110610b4a577f4e487b7100000000000000000000000000000000000000000000000000000000600052603260045260246000fd5b906000526020600020018054610b5f906138cd565b80601f0160208091040260200160405190810160405280929190818152602001828054610b8b906138cd565b8015610bd85780601f10610bad57610100808354040283529160200191610bd8565b820191906000526020600020905b815481529060010190602001808311610bbb57829003601f168201915b5050505050915050919050565b610bf6610bf06113c2565b83611483565b610c35576040517f08c379a0000000000000000000000000000000000000000000000000000000008152600401610c2c9061360e565b60405180910390fd5b610c4184848484611b0a565b50505050565b60606000610c7b610c57846117bd565b604051602001610c679190613206565b60405160208183030381529060405261196a565b9050600c8054905081610c8e9190613948565b9050600c8181548110610cca577f4e487b7100000000000000000000000000000000000000000000000000000000600052603260045260246000fd5b906000526020600020018054610cdf906138cd565b80601f0160208091040260200160405190810160405280929190818152602001828054610d0b906138cd565b8015610d585780601f10610d2d57610100808354040283529160200191610d58565b820191906000526020600020905b815481529060010190602001808311610d3b57829003601f168201915b5050505050915050919050565b6060610d7082611356565b610daf576040517f08c379a0000000000000000000000000000000000000000000000000000000008152600401610da69061356e565b60405180910390fd5b6000600660008481526020019081526020016000208054610dcf906138cd565b80601f0160208091040260200160405190810160405280929190818152602001828054610dfb906138cd565b8015610e485780601f10610e1d57610100808354040283529160200191610e48565b820191906000526020600020905b815481529060010190602001808311610e2b57829003601f168201915b505050505090506000610e59611b66565b9050600081511415610e6f578192505050610eb2565b600082511115610ea4578082604051602001610e8c929190613160565b60405160208183030381529060405292505050610eb2565b610ead84611b7d565b925050505b919050565b6032610ec36007611c24565b10610f03576040517f08c379a0000000000000000000000000000000000000000000000000000000008152600401610efa906134ce565b60405180910390fd5b6000610f0f6007611c24565b9050600160086000828254610f249190613702565b925050819055506000610f3682610777565b90506000610f4383610ac7565b90506000610f5084610c47565b90506000838383604051602001610f6993929190613184565b60405160208183030381529060405290506000600982604051602001610f909291906131b5565b60405160208183030381529060405290506000610fd583610fb084611c32565b604051602001610fc192919061324a565b604051602081830303815290604052611c32565b9050600081604051602001610fea91906132b1565b60405160208183030381529060405290506110396040518060400160405280601481526020017f0a2d2d2d2d2d2d2d2d2d2d2d2d2d2d2d2d2d2d2d0000000000000000000000008152506111b7565b6110618160405160200161104d91906131e4565b6040516020818303038152906040526111b7565b61109f6040518060400160405280601581526020017f2d2d2d2d2d2d2d2d2d2d2d2d2d2d2d2d2d2d2d2d0a00000000000000000000008152506111b7565b6110a93389611df0565b6110b38882611e0e565b6110bd6007611e82565b6110e0604051806060016040528060278152602001613ae3602791398933611e98565b7febb98688741ffa4c7589bf325de30cf7becb63de567842e1ccdb6cb949fdc82c338960405161111192919061333a565b60405180910390a15050505050505050565b6000600560008473ffffffffffffffffffffffffffffffffffffffff1673ffffffffffffffffffffffffffffffffffffffff16815260200190815260200160002060008373ffffffffffffffffffffffffffffffffffffffff1673ffffffffffffffffffffffffffffffffffffffff16815260200190815260200160002060009054906101000a900460ff16905092915050565b61124d816040516024016111cb919061337e565b6040516020818303038152906040527f41304fac000000000000000000000000000000000000000000000000000000007bffffffffffffffffffffffffffffffffffffffffffffffffffffffff19166020820180517bffffffffffffffffffffffffffffffffffffffffffffffffffffffff8381831617835250505050611f37565b50565b60007f01ffc9a7000000000000000000000000000000000000000000000000000000007bffffffffffffffffffffffffffffffffffffffffffffffffffffffff1916827bffffffffffffffffffffffffffffffffffffffffffffffffffffffff1916149050919050565b61135282826040516024016112d09291906133a0565b6040516020818303038152906040527f9710a9d0000000000000000000000000000000000000000000000000000000007bffffffffffffffffffffffffffffffffffffffffffffffffffffffff19166020820180517bffffffffffffffffffffffffffffffffffffffffffffffffffffffff8381831617835250505050611f37565b5050565b60008073ffffffffffffffffffffffffffffffffffffffff166002600084815260200190815260200160002060009054906101000a900473ffffffffffffffffffffffffffffffffffffffff1673ffffffffffffffffffffffffffffffffffffffff1614159050919050565b600033905090565b816004600083815260200190815260200160002060006101000a81548173ffffffffffffffffffffffffffffffffffffffff021916908373ffffffffffffffffffffffffffffffffffffffff160217905550808273ffffffffffffffffffffffffffffffffffffffff1661143d836108b5565b73ffffffffffffffffffffffffffffffffffffffff167f8c5be1e5ebec7d5bd14f71427d1e84f3dd0314c0f7b2291e5b200ac8c7c3b92560405160405180910390a45050565b600061148e82611356565b6114cd576040517f08c379a00000000000000000000000000000000000000000000000000000000081526004016114c49061348e565b60405180910390fd5b60006114d8836108b5565b90508073ffffffffffffffffffffffffffffffffffffffff168473ffffffffffffffffffffffffffffffffffffffff16148061154757508373ffffffffffffffffffffffffffffffffffffffff1661152f8461057a565b73ffffffffffffffffffffffffffffffffffffffff16145b8061155857506115578185611123565b5b91505092915050565b8273ffffffffffffffffffffffffffffffffffffffff16611581826108b5565b73ffffffffffffffffffffffffffffffffffffffff16146115d7576040517f08c379a00000000000000000000000000000000000000000000000000000000081526004016115ce906135ae565b60405180910390fd5b600073ffffffffffffffffffffffffffffffffffffffff168273ffffffffffffffffffffffffffffffffffffffff161415611647576040517f08c379a000000000000000000000000000000000000000000000000000000000815260040161163e9061344e565b60405180910390fd5b611652838383611f60565b61165d6000826113ca565b6001600360008573ffffffffffffffffffffffffffffffffffffffff1673ffffffffffffffffffffffffffffffffffffffff16815260200190815260200160002060008282546116ad91906137e3565b925050819055506001600360008473ffffffffffffffffffffffffffffffffffffffff1673ffffffffffffffffffffffffffffffffffffffff16815260200190815260200160002060008282546117049190613702565b92505081905550816002600083815260200190815260200160002060006101000a81548173ffffffffffffffffffffffffffffffffffffffff021916908373ffffffffffffffffffffffffffffffffffffffff160217905550808273ffffffffffffffffffffffffffffffffffffffff168473ffffffffffffffffffffffffffffffffffffffff167fddf252ad1be2c89b69c2b068fc378daa952ba7f163c4a11628f55a4df523b3ef60405160405180910390a4505050565b60606000821415611805576040518060400160405280600181526020017f30000000000000000000000000000000000000000000000000000000000000008152509050611965565b600082905060005b60008214611837578080611820906138ff565b915050600a826118309190613758565b915061180d565b60008167ffffffffffffffff811115611879577f4e487b7100000000000000000000000000000000000000000000000000000000600052604160045260246000fd5b6040519080825280601f01601f1916602001820160405280156118ab5781602001600182028036833780820191505090505b5090505b6000851461195e576001826118c491906137e3565b9150600a856118d39190613948565b60306118df9190613702565b60f81b81838151811061191b577f4e487b7100000000000000000000000000000000000000000000000000000000600052603260045260246000fd5b60200101907effffffffffffffffffffffffffffffffffffffffffffffffffffffffffffff1916908160001a905350600a856119579190613758565b94506118af565b8093505050505b919050565b60008160405160200161197d9190613149565b6040516020818303038152906040528051906020012060001c9050919050565b8173ffffffffffffffffffffffffffffffffffffffff168373ffffffffffffffffffffffffffffffffffffffff161415611a0c576040517f08c379a0000000000000000000000000000000000000000000000000000000008152600401611a039061346e565b60405180910390fd5b80600560008573ffffffffffffffffffffffffffffffffffffffff1673ffffffffffffffffffffffffffffffffffffffff16815260200190815260200160002060008473ffffffffffffffffffffffffffffffffffffffff1673ffffffffffffffffffffffffffffffffffffffff16815260200190815260200160002060006101000a81548160ff0219169083151502179055508173ffffffffffffffffffffffffffffffffffffffff168373ffffffffffffffffffffffffffffffffffffffff167f17307eab39ab6107e8899845ad3d59bd9653f200f220920489ca2b5937696c3183604051611afd9190613363565b60405180910390a3505050565b611b15848484611561565b611b2184848484611f65565b611b60576040517f08c379a0000000000000000000000000000000000000000000000000000000008152600401611b579061340e565b60405180910390fd5b50505050565b606060405180602001604052806000815250905090565b6060611b8882611356565b611bc7576040517f08c379a0000000000000000000000000000000000000000000000000000000008152600401611bbe906135ce565b60405180910390fd5b6000611bd1611b66565b90506000815111611bf15760405180602001604052806000815250611c1c565b80611bfb846117bd565b604051602001611c0c929190613160565b6040516020818303038152906040525b915050919050565b600081600001549050919050565b60606000825190506000811415611c5b5760405180602001604052806000815250915050611deb565b60006003600283611c6c9190613702565b611c769190613758565b6004611c829190613789565b90506000602082611c939190613702565b67ffffffffffffffff811115611cd2577f4e487b7100000000000000000000000000000000000000000000000000000000600052604160045260246000fd5b6040519080825280601f01601f191660200182016040528015611d045781602001600182028036833780820191505090505b5090506000604051806060016040528060408152602001613aa3604091399050600181016020830160005b86811015611da85760038101905062ffffff818a015116603f8160121c168401518060081b905060ff603f83600c1c1686015116810190508060081b905060ff603f8360061c1686015116810190508060081b905060ff603f831686015116810190508060e01b90508084526004840193505050611d2f565b506003860660018114611dc25760028114611dd257611ddd565b613d3d60f01b6002830352611ddd565b603d60f81b60018303525b508484525050819450505050505b919050565b611e0a8282604051806020016040528060008152506120fc565b5050565b611e1782611356565b611e56576040517f08c379a0000000000000000000000000000000000000000000000000000000008152600401611e4d9061352e565b60405180910390fd5b80600660008481526020019081526020016000209080519060200190611e7d929190612338565b505050565b6001816000016000828254019250508190555050565b611f32838383604051602401611eb0939291906133d0565b6040516020818303038152906040527fe3849f79000000000000000000000000000000000000000000000000000000007bffffffffffffffffffffffffffffffffffffffffffffffffffffffff19166020820180517bffffffffffffffffffffffffffffffffffffffffffffffffffffffff8381831617835250505050611f37565b505050565b60008151905060006a636f6e736f6c652e6c6f679050602083016000808483855afa5050505050565b505050565b6000611f868473ffffffffffffffffffffffffffffffffffffffff16612157565b156120ef578373ffffffffffffffffffffffffffffffffffffffff1663150b7a02611faf6113c2565b8786866040518563ffffffff1660e01b8152600401611fd194939291906132ee565b602060405180830381600087803b158015611feb57600080fd5b505af192505050801561201c57506040513d601f19601f82011682018060405250810190612019919061267c565b60015b61209f573d806000811461204c576040519150601f19603f3d011682016040523d82523d6000602084013e612051565b606091505b50600081511415612097576040517f08c379a000000000000000000000000000000000000000000000000000000000815260040161208e9061340e565b60405180910390fd5b805181602001fd5b63150b7a0260e01b7bffffffffffffffffffffffffffffffffffffffffffffffffffffffff1916817bffffffffffffffffffffffffffffffffffffffffffffffffffffffff1916149150506120f4565b600190505b949350505050565b612106838361216a565b6121136000848484611f65565b612152576040517f08c379a00000000000000000000000000000000000000000000000000000000081526004016121499061340e565b60405180910390fd5b505050565b600080823b905060008111915050919050565b600073ffffffffffffffffffffffffffffffffffffffff168273ffffffffffffffffffffffffffffffffffffffff1614156121da576040517f08c379a00000000000000000000000000000000000000000000000000000000081526004016121d19061354e565b60405180910390fd5b6121e381611356565b15612223576040517f08c379a000000000000000000000000000000000000000000000000000000000815260040161221a9061342e565b60405180910390fd5b61222f60008383611f60565b6001600360008473ffffffffffffffffffffffffffffffffffffffff1673ffffffffffffffffffffffffffffffffffffffff168152602001908152602001600020600082825461227f9190613702565b92505081905550816002600083815260200190815260200160002060006101000a81548173ffffffffffffffffffffffffffffffffffffffff021916908373ffffffffffffffffffffffffffffffffffffffff160217905550808273ffffffffffffffffffffffffffffffffffffffff16600073ffffffffffffffffffffffffffffffffffffffff167fddf252ad1be2c89b69c2b068fc378daa952ba7f163c4a11628f55a4df523b3ef60405160405180910390a45050565b828054612344906138cd565b90600052602060002090601f01602090048101928261236657600085556123ad565b82601f1061237f57805160ff19168380011785556123ad565b828001600101855582156123ad579182015b828111156123ac578251825591602001919060010190612391565b5b5090506123ba91906123be565b5090565b5b808211156123d75760008160009055506001016123bf565b5090565b60006123ee6123e98461367a565b613649565b90508281526020810184848401111561240657600080fd5b61241184828561388b565b509392505050565b60008135905061242881613a46565b92915050565b60008135905061243d81613a5d565b92915050565b60008135905061245281613a74565b92915050565b60008151905061246781613a74565b92915050565b600082601f83011261247e57600080fd5b813561248e8482602086016123db565b91505092915050565b6000813590506124a681613a8b565b92915050565b6000602082840312156124be57600080fd5b60006124cc84828501612419565b91505092915050565b600080604083850312156124e857600080fd5b60006124f685828601612419565b925050602061250785828601612419565b9150509250929050565b60008060006060848603121561252657600080fd5b600061253486828701612419565b935050602061254586828701612419565b925050604061255686828701612497565b9150509250925092565b6000806000806080858703121561257657600080fd5b600061258487828801612419565b945050602061259587828801612419565b93505060406125a687828801612497565b925050606085013567ffffffffffffffff8111156125c357600080fd5b6125cf8782880161246d565b91505092959194509250565b600080604083850312156125ee57600080fd5b60006125fc85828601612419565b925050602061260d8582860161242e565b9150509250929050565b6000806040838503121561262a57600080fd5b600061263885828601612419565b925050602061264985828601612497565b9150509250929050565b60006020828403121561266557600080fd5b600061267384828501612443565b91505092915050565b60006020828403121561268e57600080fd5b600061269c84828501612458565b91505092915050565b6000602082840312156126b757600080fd5b60006126c584828501612497565b91505092915050565b6126d781613817565b82525050565b6126e681613829565b82525050565b60006126f7826136bf565b61270181856136d5565b935061271181856020860161389a565b61271a81613a35565b840191505092915050565b6000612730826136ca565b61273a81856136e6565b935061274a81856020860161389a565b61275381613a35565b840191505092915050565b6000612769826136ca565b61277381856136f7565b935061278381856020860161389a565b80840191505092915050565b6000815461279c816138cd565b6127a681866136f7565b945060018216600081146127c157600181146127d257612805565b60ff19831686528186019350612805565b6127db856136aa565b60005b838110156127fd578154818901526001820191506020810190506127de565b838801955050505b50505092915050565b600061281b6025836136f7565b91507f68747470733a2f2f6e6674707265766965772e30786465762e636f6465732f3f60008301527f636f64653d0000000000000000000000000000000000000000000000000000006020830152602582019050919050565b60006128816032836136e6565b91507f4552433732313a207472616e7366657220746f206e6f6e20455243373231526560008301527f63656976657220696d706c656d656e74657200000000000000000000000000006020830152604082019050919050565b60006128e7601c836136e6565b91507f4552433732313a20746f6b656e20616c7265616479206d696e746564000000006000830152602082019050919050565b6000612927600a836136f7565b91507f54484952445f574f5244000000000000000000000000000000000000000000006000830152600a82019050919050565b60006129676024836136e6565b91507f4552433732313a207472616e7366657220746f20746865207a65726f2061646460008301527f72657373000000000000000000000000000000000000000000000000000000006020830152604082019050919050565b60006129cd6019836136e6565b91507f4552433732313a20617070726f766520746f2063616c6c6572000000000000006000830152602082019050919050565b6000612a0d6063836136f7565b91507f222c20226465736372697074696f6e223a20224120686967686c79206163636c60008301527f61696d656420636f6c6c656374696f6e206f6620737175617265732e222c202260208301527f696d616765223a2022646174613a696d6167652f7376672b786d6c3b6261736560408301527f36342c00000000000000000000000000000000000000000000000000000000006060830152606382019050919050565b6000612abf600b836136f7565b91507f5345434f4e445f574f52440000000000000000000000000000000000000000006000830152600b82019050919050565b6000612aff602c836136e6565b91507f4552433732313a206f70657261746f7220717565727920666f72206e6f6e657860008301527f697374656e7420746f6b656e00000000000000000000000000000000000000006020830152604082019050919050565b6000612b65600d836136f7565b91507f3c2f746578743e3c2f7376673e000000000000000000000000000000000000006000830152600d82019050919050565b6000612ba56038836136e6565b91507f4552433732313a20617070726f76652063616c6c6572206973206e6f74206f7760008301527f6e6572206e6f7220617070726f76656420666f7220616c6c00000000000000006020830152604082019050919050565b6000612c0b6029836136e6565b91507f4f6e6c79203530204e46547320696e2074686973207365726965732063616e2060008301527f6265206d696e74656400000000000000000000000000000000000000000000006020830152604082019050919050565b6000612c71602a836136e6565b91507f4552433732313a2062616c616e636520717565727920666f7220746865207a6560008301527f726f2061646472657373000000000000000000000000000000000000000000006020830152604082019050919050565b6000612cd76029836136e6565b91507f4552433732313a206f776e657220717565727920666f72206e6f6e657869737460008301527f656e7420746f6b656e00000000000000000000000000000000000000000000006020830152604082019050919050565b6000612d3d602e836136e6565b91507f45524337323155524953746f726167653a2055524920736574206f66206e6f6e60008301527f6578697374656e7420746f6b656e0000000000000000000000000000000000006020830152604082019050919050565b6000612da36002836136f7565b91507f227d0000000000000000000000000000000000000000000000000000000000006000830152600282019050919050565b6000612de36020836136e6565b91507f4552433732313a206d696e7420746f20746865207a65726f20616464726573736000830152602082019050919050565b6000612e236031836136e6565b91507f45524337323155524953746f726167653a2055524920717565727920666f722060008301527f6e6f6e6578697374656e7420746f6b656e0000000000000000000000000000006020830152604082019050919050565b6000612e89602c836136e6565b91507f4552433732313a20617070726f76656420717565727920666f72206e6f6e657860008301527f697374656e7420746f6b656e00000000000000000000000000000000000000006020830152604082019050919050565b6000612eef6029836136e6565b91507f4552433732313a207472616e73666572206f6620746f6b656e2074686174206960008301527f73206e6f74206f776e00000000000000000000000000000000000000000000006020830152604082019050919050565b6000612f55602f836136e6565b91507f4552433732314d657461646174613a2055524920717565727920666f72206e6f60008301527f6e6578697374656e7420746f6b656e00000000000000000000000000000000006020830152604082019050919050565b6000612fbb600a836136f7565b91507f7b226e616d65223a2022000000000000000000000000000000000000000000006000830152600a82019050919050565b6000612ffb6021836136e6565b91507f4552433732313a20617070726f76616c20746f2063757272656e74206f776e6560008301527f72000000000000000000000000000000000000000000000000000000000000006020830152604082019050919050565b6000613061600a836136f7565b91507f46495253545f574f5244000000000000000000000000000000000000000000006000830152600a82019050919050565b60006130a1601d836136f7565b91507f646174613a6170706c69636174696f6e2f6a736f6e3b6261736536342c0000006000830152601d82019050919050565b60006130e16031836136e6565b91507f4552433732313a207472616e736665722063616c6c6572206973206e6f74206f60008301527f776e6572206e6f7220617070726f7665640000000000000000000000000000006020830152604082019050919050565b61314381613881565b82525050565b6000613155828461275e565b915081905092915050565b600061316c828561275e565b9150613178828461275e565b91508190509392505050565b6000613190828661275e565b915061319c828561275e565b91506131a8828461275e565b9150819050949350505050565b60006131c1828561278f565b91506131cd828461275e565b91506131d882612b58565b91508190509392505050565b60006131ef8261280e565b91506131fb828461275e565b915081905092915050565b60006132118261291a565b915061321d828461275e565b915081905092915050565b600061323382612ab2565b915061323f828461275e565b915081905092915050565b600061325582612fae565b9150613261828561275e565b915061326c82612a00565b9150613278828461275e565b915061328382612d96565b91508190509392505050565b600061329a82613054565b91506132a6828461275e565b915081905092915050565b60006132bc82613094565b91506132c8828461275e565b915081905092915050565b60006020820190506132e860008301846126ce565b92915050565b600060808201905061330360008301876126ce565b61331060208301866126ce565b61331d604083018561313a565b818103606083015261332f81846126ec565b905095945050505050565b600060408201905061334f60008301856126ce565b61335c602083018461313a565b9392505050565b600060208201905061337860008301846126dd565b92915050565b600060208201905081810360008301526133988184612725565b905092915050565b600060408201905081810360008301526133ba8185612725565b90506133c9602083018461313a565b9392505050565b600060608201905081810360008301526133ea8186612725565b90506133f9602083018561313a565b61340660408301846126ce565b949350505050565b6000602082019050818103600083015261342781612874565b9050919050565b60006020820190508181036000830152613447816128da565b9050919050565b600060208201905081810360008301526134678161295a565b9050919050565b60006020820190508181036000830152613487816129c0565b9050919050565b600060208201905081810360008301526134a781612af2565b9050919050565b600060208201905081810360008301526134c781612b98565b9050919050565b600060208201905081810360008301526134e781612bfe565b9050919050565b6000602082019050818103600083015261350781612c64565b9050919050565b6000602082019050818103600083015261352781612cca565b9050919050565b6000602082019050818103600083015261354781612d30565b9050919050565b6000602082019050818103600083015261356781612dd6565b9050919050565b6000602082019050818103600083015261358781612e16565b9050919050565b600060208201905081810360008301526135a781612e7c565b9050919050565b600060208201905081810360008301526135c781612ee2565b9050919050565b600060208201905081810360008301526135e781612f48565b9050919050565b6000602082019050818103600083015261360781612fee565b9050919050565b60006020820190508181036000830152613627816130d4565b9050919050565b6000602082019050613643600083018461313a565b92915050565b6000604051905081810181811067ffffffffffffffff821117156136705761366f613a06565b5b8060405250919050565b600067ffffffffffffffff82111561369557613694613a06565b5b601f19601f8301169050602081019050919050565b60008190508160005260206000209050919050565b600081519050919050565b600081519050919050565b600082825260208201905092915050565b600082825260208201905092915050565b600081905092915050565b600061370d82613881565b915061371883613881565b9250827fffffffffffffffffffffffffffffffffffffffffffffffffffffffffffffffff0382111561374d5761374c613979565b5b828201905092915050565b600061376382613881565b915061376e83613881565b92508261377e5761377d6139a8565b5b828204905092915050565b600061379482613881565b915061379f83613881565b9250817fffffffffffffffffffffffffffffffffffffffffffffffffffffffffffffffff04831182151516156137d8576137d7613979565b5b828202905092915050565b60006137ee82613881565b91506137f983613881565b92508282101561380c5761380b613979565b5b828203905092915050565b600061382282613861565b9050919050565b60008115159050919050565b60007fffffffff0000000000000000000000000000000000000000000000000000000082169050919050565b600073ffffffffffffffffffffffffffffffffffffffff82169050919050565b6000819050919050565b82818337600083830152505050565b60005b838110156138b857808201518184015260208101905061389d565b838111156138c7576000848401525b50505050565b600060028204905060018216806138e557607f821691505b602082108114156138f9576138f86139d7565b5b50919050565b600061390a82613881565b91507fffffffffffffffffffffffffffffffffffffffffffffffffffffffffffffffff82141561393d5761393c613979565b5b600182019050919050565b600061395382613881565b915061395e83613881565b92508261396e5761396d6139a8565b5b828206905092915050565b7f4e487b7100000000000000000000000000000000000000000000000000000000600052601160045260246000fd5b7f4e487b7100000000000000000000000000000000000000000000000000000000600052601260045260246000fd5b7f4e487b7100000000000000000000000000000000000000000000000000000000600052602260045260246000fd5b7f4e487b7100000000000000000000000000000000000000000000000000000000600052604160045260246000fd5b6000601f19601f8301169050919050565b613a4f81613817565b8114613a5a57600080fd5b50565b613a6681613829565b8114613a7157600080fd5b50565b613a7d81613835565b8114613a8857600080fd5b50565b613a9481613881565b8114613a9f57600080fd5b5056fe4142434445464748494a4b4c4d4e4f505152535455565758595a6162636465666768696a6b6c6d6e6f707172737475767778797a303132333435363738392b2f416e204e4654207769746820494420257320686173206265656e206d696e74656420746f202573a264697066735822122052a5c5f58b516d7d8a31fd5c2d47f1fa11dd8dc871a78ac8c8c1475af7b03bb964736f6c634300080000333c73766720786d6c6e733d27687474703a2f2f7777772e77332e6f72672f323030302f73766727207072657365727665417370656374526174696f3d27784d696e594d696e206d656574272076696577426f783d273020302033353020333530273e3c7374796c653e2e62617365207b2066696c6c3a2077686974653b20666f6e742d66616d696c793a2073657269663b20666f6e742d73697a653a20323470783b207d3c2f7374796c653e3c726563742077696474683d273130302527206865696768743d2731303025272066696c6c3d27626c61636b27202f3e3c7465787420783d273530252720793d273530252720636c6173733d27626173652720646f6d696e616e742d626173656c696e653d276d6964646c652720746578742d616e63686f723d276d6964646c65273e",
  "linkReferences": {},
  "deployedLinkReferences": {}
}